S10A007C0C8426020C83B67C
S10600857EDCC258
S123DB008D0327FC39B6A00085012706B6A001847F394F398D243402810D270BB7A0010CE6
S123DB20799679917825100F798D0F860DB7A0018D08860AB7A0013502393402B6A000850E
S123DB400227F935023910CE01EE966E8155260A9E6FA684811226026E848E02186F8330AA
S123DB600126FA8E02176F809F19A60243A702A10226063001630120F19F719F279F233061
S123DB8089FF389F211F148EDBCECE0076C612BDDCAECE00A7C604BDDCAE863997F0BDDFCC
S123DBA0BD8E00B59F8DCEE6D1C60AEF815A26FB8695B7A0008EDC03BDEBE88EDBC69F6F49
S123DBC08655976E200412BDDFD77EDF253B10405000E6D10C8426020C83B600007EDCC28B
S123DBE07EDCBE7EDBCD7EE6D1804FC7525932DD20DE2D1DDDC0DCD10000000000000000CC
S123DC00000000003638303920455854454E4445442042415349430D2843292031393832A1
S123DC20204259204D4943524F534F46540D0D0034169E76DC789F6AD76C976D35960F73E6
S123DC408E00F4C601BDDB00810826075A27EF301F20348115260A5A27E48608BDDB142091
S123DC60F681031A012705810D260D4F3401BDEBA86F848E00F33581812025C9817B24C5AC
S123DC80C1FA24C1A7805CBDDB1420B92705BDE9C49F7A6E9F007A7EE0A696732603BDDBD4
S123DCA0050F73975310260C6D97567EE922A680A7C05A26F939399D8227FB7EE503170391
S123DCC0E53B813A240A812026020E7C803080D039EEC6EF3AEEDF00ADF16BF1C0E9D7E99E
S123DCE008E784E99DE927E913F270F238F241F3B2F3E4F306F56CF340FA3EE932E94FE9DF
S123DD0056DC9AE775F574F634F60479EC1179EC087BED187BEDDD7FF34950E55C46E55BD0
S123DD20464FD247CF5245CDA7454C53C549C6444154C15052494ED44FCE494E5055D44586
S123DD404EC44E4558D44449CD524541C45255CE524553544F52C55245545552CE53544F89
S123DD60D0504F4BC5434F4ED44C4953D4434C4541D24E45D7455845C354524FCE54524F02
S123DD8046C64445CC4445C64C494EC552454E55CD454449D4544142A854CF5355C25448D2
S123DDA045CE4E4FD4535445D04F46C6ABADAAAFDE414EC44FD2BEBDBC46CE5553494EC770
S123DDC05347CE494ED44142D35553D2524EC45349CE504545CB4C45CE535452A45641CCCA
S123DDE04153C3434852A44154CE434FD35441CE4558D04649D84C4FC7504FD35351D248B6
S123DE004558A44C454654A45249474854A44D4944A4494E4B4559A44D45CD56415250543E
S123DE20D2494E5354D2535452494E47A4DFEBE136E193E193E193E1C4E190EB6DE1F2E221
S123DE409FE0BDE384E5D5E2D9E12BE09FE170E0C1E9DEE0E6E9E5E0F7DFBBDC8CF567F5A4
S123DE6068F7E3F727FED1F86DF3F34E46534E52474F4446434F564F4D554C425344442F0C
S123DE80304944544D4F534C535354434E4644414F444E494F464D4E4F4945445355464E25
S123DEA045204552524F520020494E20000D4F4B0D000D425245414B003064C6129F0FA6B2
S123DEC08480802615AE019F119E3B27099C1127099E0F3A20E59E119F3B9E0F4D398D17EE
S123DEE0DE4133419E433001A68236029C4726F8DF45394F58D31FC3003A250810DF1710E2
S123DF00931725EEC60CBDDFD7BDEBACBDEBFB8EDE6B3A8D318D2F8EDEA0BDEBE896684C93
S123DF202703BDF011BDEBAC8EDEADBDEBE8BDDC3ECEFFFFDF6825F69F839D7C27F0250B71
S123DF40BDEA9A7EE074A6807EEBFDBDE2179E2B9FF1BDEA9AD7038D4C2512DC47A384D3C7
S123DF601BDD1BEE843702A7809C1B26F896F3271CDC1BDD43DB038900DD41BDDEDECE0034
S123DF80EF3702A7809C4526F89E419F1B8D368D02209B9E19EC8427213304A6C026FCEF6C
S123DFA084AE8420F0DC2B9E19EE84270910A3022306AE8420F31A019F473926FB9E196F93
S123DFC0806F809F1B9E19BDE16B9E279F23BDE09F9E1B9F1D9F1F8E00C99F0BAEE410DEDD
S123DFE0216FE20F2D0F2E0F086E8486809708BDE239BDDEB9326226049E0F3285C609BDAA
S123E000DEF3BDE198DC683416C6A0BDE4FBBDE3CFBDE3CDD654CA7FD450D750108EE0232A
S123E0207EE4768EED11BDEE609D8281A426059D7CBDE3CDBDEEB9BDE472DC3B34068680AA
S123E04034021CAF8D609E839F2FA6802707813A27227EE503A68197002772EC80DD689F7A
S123E06083968C270F865BBDDB149668BDF018865DBDDB149D7C8D0220C827294D102A017A
S123E080B881FF270F819E22C9BEDBF1481F893A9D7C6E949D7C8197102714F07EE5039EC5
S123E0A019301F9F3339BDDB05270A8103271281132703977339BDDB0527FB20EE9D822051
S123E0C0021A0126319E839F2F060032629E688CFFFF27069F299E2F9F2D8EDEB10D0010E7
S123E0E02AFE427EDF1A260EC6209E2D1027FE169F839E299F6839272CBDE66D34069E2780
S123E1009D82270CBDE4F9BDE9C4301F9C7122181F10A3E125121F0383003A250B931B2543
S123E12007DF219F277EDFCA7EDF049D821027FE94BDDFCA20191F899D7CC1A02716C1A13E
S123E1402645C603BDDEF3DE839E6886A134528D037EE0429D82BDE2178D403001DC2B10CB
S123E160936822029E19BDDFA92517301F9F833926FD86FF973BBDDEB91F148121270BC6FF
S123E180048CC60E7EDF067EE50335529F68DF838D068C8D069F8339C63A865FD7015F9E97
S123E1A0831F98D6019701A68427EC3404A1E027E63001812227EA4C26023001818626E711
S123E1C00C0420E3BDE3CD9D8281812705C6A2BDE4FB964F26130F048DB64D27BA9D7C812E
S123E1E08426F50A042AF19D7C9D821025FF657EE07ABDE992C681BDE4FB340281A127040C
S123E20081A026830A53260535047EE1389D7C8D06812C27EF35849E749F2B246180309708
S123E22001DC2B811822DB58495849D32B5849DB018900DD2B9D7C20E2BDE5DE9F3BC6AE05
S123E240BDE4FB96063402BDE3E2350246BDE3D410270C2B9E52DC2110A30224119C1B25B8
S123E2600DE684BDE7949E4DBDE8CA8E00569F4DBDE8FCDE4D9E3B3726A78410AF02393F5B
S123E2805245444F0D007EDF06960927079E319F687EE5038EE27EBDEBE89E2F9F8339C66B
S123E2A0169E68300127DF8D01398122260BBDE4D0C63BBDE4FBBDEBEB8E00F36F848D06C4
S123E2C0C62CE7842016BDEBFBBDEBF8BDDC3E240532647EE0C9C62E399E33864F97099F95
S123E2E035BDE5DE9F3B9E839F2B9E35A684260996092651BDEBFB8DCD9F839D7CD6062723
S123E300239E8397018122270E301F4F9701BDDC30863A9701862C9702BDE7A5BDE4D5BD27
S123E320E2542006BDEF5EBDEE7F9D822706812C1026FF529E839F359E2B9F839D82272182
S123E340BDE4F9209C9F83BDE19830014D260AC606EE812741EC81DD31A684818626E620E2
S123E360989E35D6091026FD3AA68427068EE3737EEBE8393F45585452412049474E4F52BB
S123E38045440D0026049E742003BDE5DE9F3BBDDEB92704C60020471F143003BDEE60A667
S123E3A06897549E3BBDEC0EBDEE7F3069BDEEE2E068270CAE6E9F68AEE8109F837EE04220
S123E3C032E8129D82812C26F49D7C8DBD8D131CFE7D1A010D0625032A998C2B96C6187ECB
S123E3E0DF068D6E4F8C34043402C601BDDEF3BDE4AF0F3F9D8280AD25138103240F810140
S123E40049983F913F2564973F9D7C20E9D63F26331024006B8B0724679906102704778983
S123E420FF340248ABE08EDD0B30863502A18424558D9C34028D299E3D3502261D4D1027E1
S123E440006A204B0806598D098EE457D73F0F0620D99E837EE16B64E57BA184243120D3DD
S123E460EC0134068D08D63F16FF7B7EE503D654A68435203404D64F9E50DE5234546EA413
S123E4809E74A6E0272681642703BDE3CF9F3D3504815A2719817D271554D70A3552975CFC
S123E4A09F5DDF5F3504D761D854D762D64F39BDF6FC0F069D7C24037EEF5EBDE6292450DB
S123E4C0812E27F481A7274081A627E38122260A9E83BDE79F9E649F833981A3260D865AE3
S123E4E0BDE3E6BDE67443537EE77B4C272E8D06BDE3E2C6298CC6288CC62CE19F0083263F
S123E500020E7CC6027EDF06867DBDE3E67EF135BDE5DE9F52960626957EEE609D7C1F89BE
S123E520589D7CC13823037EE5033404C12A251EC130241C8DC0A6E4BDE3E28DBCBDE3D236
S123E5403502DE523442BDE992350234068E8D9E3504BEDBF63AAD947EE3CF864F9703BDD9
S123E560E674DD01BDEE96BDE6740D0326069401D40220049A01DA027EE77BBDE3D426103B
S123E58096618A7F945D975D8E005CBDEEE220360F060A3FBDE8DED7569F589E5FBDE8E03E
S123E5A096563404A0E0270786012403D656409754DE585C5A2604D654200BA680A1C02767
S123E5C0F3C6FF240150CB0159D40A2702C6FF7EEEC8BDE4F9C6018D089D8226F5395F9D80
S123E5E082D70597379D828D401025FF165FD7069D7C25048D33250A1F899D7C25FC8D29B0
S123E60024F8812426060306CB809D7CD7389A088028102700750F089E1BDC379C1D2712C2
S123E62010A381273E300520F381412504805B80A5398E0074EEE41183E5132728DC1FDD4A
S123E64043C30007DD419E1D9F47BDDEDE9E419F1F9E459F1D9E47DC37ED814F5FED84EDC3
S123E66002A7049F393990800000009D7CBDE3CD96542B5DBDE3CF964F819025088EE66664
S123E680BDEEE2264CBDEF14DC5239DC053406125F9E3734148DD435349F37DE5234605CE7
S123E6A09D82812C27EBD703BDE4F33506DD059E1D9C1F2721DC3710A3842706EC02308B0F
S123E6C020EFC6129605260BD603E1042759C6108CC6087EDF06CC0005DD64DC37ED84D646
S123E6E003E704BDDEF39F41C60B4F0D0527053506C30001ED058D5DDD6430020A0326E8F3
S123E7009F0FD30F1025F7FC1F01BDDEF7830035DD1F4F301FA7059C0F26F89E41961F939D
S123E72041ED029605262DE604D7034F5FDD643506DD5210A305243ADE6427048D17D3524E
S123E74030020A0326E7EDE358495849E3E1308B30059F393986109745EC05DD174F5F5835
S123E76049250F086509642404D31725050A4526EE397EE6CE1F40931F214F0F06DD50C6AB
S123E780907EEECEBDE3CFCE01F0BDF02832628E01EF200B9F4D8D5C9F58D75639301F8664
S123E7A0229701970230019F629F58C6FF5CA680270C91012704910226F381222702301FDB
S123E7C09F64D756DE62118301F022078DC69E62BDE8CC9E0B8C00F12605C61E7EDF069625
S123E7E056A700DC58ED0286FF97069F0D9F5230059F0B390F074F3406DC23A3E010932139
S123E800250ADD239E2330019F253584C61A030727CA8D04350420DE9E279F234F5FDD4B56
S123E8209E219F478E00C99C0B27048D3220F89E1B9C1D27048D2220F89F419E419C1F272A
S123E84035EC02D341DD41A6012AF0E60458CB053A9C4127E88D0820F8A60130022A14E6BC
S123E860842710EC02109323220910934723049F4BDD473005399E4B27FB4FE6845AD34735
S123E880DD439E239F41BDDEE09E4BDC45ED029E45301F7EE81ADC523406BDE4AFBDE3D263
S123E8A035109F62E6849E52EB842405C61C7EDF06BDE7949E62E6848D109E4D8D228D0C65
S123E8C09E628D1CBDE7D37EE3F4AE02DE255C2004A680A7C05A26F9DF2539BDE3D29E52E7
S123E8E0E6848D182613AE07301F9C2326083404D323DD233504300139AE02399C0D26074B
S123E9009F0B301B9F0D4F398D037EE77A8DCC0F065D39BDE995C601BDE7F49653BDE79898
S123E920A78432627EE7D38D0220DF8DE0275EE684398D484FE1842303E6844F3406BDE773
S123E940969E4D8D9B35043A3504BDE8CC20D58D2BA0844020DFC6FFD7539D8281292705F9
S123E960BDE4F98D2D8D1527245F4AA18424CD1F89E08450D15323C4D65320C0BDE4F3EEA1
S123E980E4AE659F4DA664E66432671F357EE6D19D7CBDE3CDBDE6704D26F20E82BDE90DD9
S123E9A0102702E1DE839F833AA68434526F849D82BDEF5E3552A784DF83398D079F2BBD48
S123E9C0E4F920CEBDE3CD96542BC2964F819022BCBDEF149E52398DEEE6847EE77A8DDB3B
S123E9E09E2BE784393401BDE217BDDFA59F66350127129D82271381A726099D7C2706BD53
S123EA00E217270639CEFFFFDF2B32629E66BDEBACBDDC97EC8426037EDF259F66EC021083
S123EA20932B22F4BDF018BDEBF89E668D10AE9F0066CE00F4A6C027D5BDEBFD20F7300431
S123EA40108E00F4A68027512B15813A260DE684C18427F0C18327EC8C86218D3020E5CE74
S123EA60DBE481FF2604A6803345847F334A6DC427E7A0C42AF6ABC4EE414A2B066DC02AD8
S123EA80FC20F7A6C48D066DC02AF820B7108C01ED2406847FA7A06FA4399E83CE00F30F01
S123EAA0430F44A68027210D43270FBDE629241881302504813923100F438120270A9742FC
S123EAC0812227380D442719A7C02706813A27CF20D16FC06FC01F308300F18E00F29F83A6
S123EAE039813F2604868720DF81272613CC3A83EDC10F42A68027D0914227CCA7C020F41C
S123EB0081302504813C25C0301F34500F41CEDBE40F42334AA6C4273110AE41AEE4E6A01E
S123EB20E08027FAC180263832623540DA4296412606C1842606863AEDC12094E7C0C18608
S123EB4026020C44C18227AA2086CEDBE9034126C03550A680A7C0BDE62925EC034320E886
S123EB600C424A27AE313FE6A02AFC20AF27398D0139BDFAD2273E819F2753812C273781FE
S123EB803B2760BDE3E2960634022606BDF025BDE79D8D573504BDDC305D26089D82812CDF
S123EBA027148D549D8226CF860D2051BDDC3027F7966C26F339BDDC30270AD66CD16B2545
S123EBC0068DE5201ED66CD06A24FC502010BDE99081291026F92CBDDC30D06C23058D1852
S123EBE05A26FB9D7C7EEB75BDE79FBDE8DE5C5A27C3A6808D0720F786208C863F7EDB1404
S123EC008EF10C2009BDED7B035403622003BDED7B5D102702808E005C1F895D276CD04F5C
S123EC202769250A974F966197548E004F50C1F82F594F6401BDED06D6622A0B6301630241
S123EC406303630443890097639653996097539652995F97529651995E97519650995D974F
S123EC60505D2A4425028D5D5F9650262E965197509652975196539752966397530F63CB3B
S123EC8008C1282DE44F974F9754398D6D5F20A85C086309530952095109502AF3964F348D
S123ECA004A0E0974F23DE8C2508086386009763200C0C4F272806500651065206532404E5
S123ECC08D0D27EE39035403500351035203539E5230019F5226069E5030019F5039C60A4A
S123ECE07EDF068E0012A6049763A603A704A602A703A601A702965BA701CB082FE89663F7
S123ED00C008270C6701660266036604465C26F43981000000008D6327608D78860097132F
S123ED20971497159716D6538D22D663D78BD6528D1AD663D78AD6518D12D663D789D6506A
S123ED408D0CD663D788BDEE577EEC682795439613562726241696169B6097169615995F2E
S123ED6097159614995E97149613995D46971306140615061606634F20D539EC0197618A62
S123ED8080DD5DD661D854D762EC03DD5FA684975CD64F394D27169B4F464928108B809796
S123EDA04F270C966297543996544320023262102AFED27EECDEBDEEAB270D8B0225F40F3D
S123EDC062BDEC190C4F27EB398420000000BDEEAB8EEDC95FD762BDEE608C8D9E27730033
S123EDE04F8DB10C4F27CC8E0013C604D703C6019650915D26139651915E260D9652915F3A
S123EE002607965391602601431FA859240AE7800A032B34272EC6011F8A250E0860095F94
S123EE20095E095D25E32BC820DF966090539760965F9252975F965E9251975E965D9250C7
S123EE40975D20D8C64020D0565656D7638D087EEC68C6147EDF069E139F509E159F52396F
S123EE603402EC0197548A80DD500F63E684AE039F52D74F35828E004520068E00408C9EFD
S123EE803B964FA78496548A7F9450A7019651A702DE52EF0339966197549E5C9F4F0F637D
S123EEA0965E975196549E5F9F5239DC4FDD5C9E519F5E9E539F604D39D64F2708D65459C4
S123EEC0C6FF250150398DF1D7500F51C68896508080D74FDC74DD52976397547EEC640F1A
S123EEE05439E68427D3E601D8542BD1D64FE184261DE601CA7FD450E1012613D651E102C8
S123EF00260DD652E1032607D653E00426013956D85420ABD64F273DC0A096542A05035B67
S123EF20BDECC78E004FC1F82E06BDECFA0F5B390F5B96544906507EED06D64FC1A0241D22
S123EF408DD2D7639654D754808086A0974F965397017EEC64D750D751D752D753399E74B7
S123EF609F549F4F9F519F529F479F452564BDF69B812D260403552004812B26049D7C25C2
S123EF8051812E2728814526289D7C256481A7270E812D270A81A62708812B2704200603D6
S123EFA0489D7C254C0D48270800472004034626CC96479045974727122A09BDEDCE0C478A
S123EFC026F92007BDEDB60A4726F996552A8E7EF135D645D046D7453402BDEDB63504C0F4
S123EFE0308D022098BDEE7BBDEEC88E00407EEC0ED6475858DB475880303404ABE097471F
S123F000209F9B3EBC1FFD9E6E6B27FD9E6E6B28008EDEA78D0CDC68DD50C69043BDEED20F
S123F0208D037EEBE8CE01F18620D6542A02862DA7C0DF6497548630D64F102700C64FC1FF
S123F0408022088EF00CBDED1686F797458EF007BDEEEC2E0F8EF002BDEEEC2E0EBDEDB653
S123F0600A4520F1BDEDCE0C4520E2BDEC00BDEF14C60196458B0A2B09810B24054A1F89E6
S123F08086024A4A9747D7452E0DDE64862EA7C05D27048630A7C08EF111C6809653AB03AC
S123F0A097539652A90297529651A90197519650A98497505C565928E32403C00B50CB2F21
S123F0C030041F98847FA7C00A452604862EA7C053C4808CF13526C4A6C2813027FA812E27
S123F0E02602335F862BD647271C2A03862D50A7428645A741862F4CC00A24FBCB3AED4356
S123F1006F452004A7C46F418E01F1398000000000FA0A1F0000989680FFF0BDC0000186FB
S123F120A0FFFFD8F0000003E8FFFFFF9C0000000AFFFFFFFF964F27020354399F64BDEE8F
S123F1407B8D058D088E00407EED169F64BDEE769E64E680D7559F648DEE9E6430059F644A
S123F160BDEC0E8E00450A5526EE39BDEEB92B1F27158D10BDEE7B8D0E8E00408DCA8EED6D
S123F18011BDEC0E7EEF3A9EB19F509EB39F52BEF1BC9F5DBEF1BE9F5FBDED1CDC8AC36556
S123F1A08BDDB3DD52DC88C9B08905DDB1DD500F548680974F961597637EEC6840E64DABF7
S123F1C0BDEEAB8EF205D661BDEDD5BDEEAB8DB40F62965CD64FBDEC088EF20ABDEC0596FC
S123F1E05434022A09BDEC0096542B05030ABDF1358EF20ABDEC0E35024D2A03BDF1358E38
S123F200F20F7EF13C83490FDAA27F000000000584E61A2D1B862807FBF887996889018756
S123F2202335DFE186A55DE72883490FDAA2A154468F138F524389CD8EF26BBDEC0E7EF15C
S123F240C0BDEE7B0F0A8DF68E004ABDEE818E0040BDEE600F54960A8D0C0D4F1027FA7EA4
S123F2608E004A7EEDDB34027EF1EE81490FDAA2965434022A028D24964F34028181250540
S123F2808EED118DDE8EF2A0BDF13C3502818125068EF26BBDEC0535024D2A037EF13539DE
S123F2A00B76B383BDD3791EF4A6F57B83FCB0107C0C1F67CA7CDE53CBC17D1464704C7DE4
S123F2C0B7EA517A7D6330887E7E9244993A7E4CCC91C77FAAAAAA138100000000037F5EA2
S123F2E056CB7980139B0B6480763893168238AA3B20803504F334813504F334808000007C
S123F3000080317217F8BDEEB9102FF3C48EF2F2964F808034028680974FBDEC0E8EF2F7B6
S123F320BDEDDB8EED11BDEC058EF2DDBDF13C8EF2FCBDEC0E3504BDEFE58EF3017EED16C3
S123F340BDEEAB8EF10CBDEE6027674D26037EEC868E004ABDEE815F96612A10BDEF3A8EC1
S123F360004A9661BDEEEC260343D601BDEE983404BDF3068E004ABDED168D363502461055
S123F38025FDB2398138AA3B29077134583E5674167EB31B772FEEE3857A1D841C2A7C63EB
S123F3A059580A7E75FDE7C6803172181081000000008EF384BDED16BDEE7B964F81882527
S123F3C0037EEDA8BDEF3A96018B8127F44A34028E0040BDEC058EF389BDF14B0F623502C8
S123F3E0BDED9439BDEEB92B037EEF3A03548DF97EF135BDF821326286019798BDDFA51067
S123F40025ED7FBDEA3E1F208300F5D797DC2BBDF018BDEBF88E00F4D69826255FBDF5474E
S123F420BDFCEC250B80303402860A3DEBE020EDC001C90181412605BDEBA820BB814C26D2
S123F4400B8D310F98BDEBA820C33262810D260D8D22BDEBA88E00F49F837EDF4E81452775
S123F460F181512606BDEBA87EDF258D0220AD812026108CC6F9A6842708BDDB1430015AB9
S123F48026F439814426486D8427F78D045A26F7390A97311F3121A621A7A426F83981491C
S123F4A027138158270D8148265C6F841F108300F5D7978DBFBDF547810D278E811B27253E
S123F4C0810826228C00F427EC8D458DC420E6814326CB6D84270EBDF547250220F5A78064
S123F4E08D375A26EE39D697C1F9260220C734106D8026FCE682E701ACE426F83262A7805B
S123F5008D170C9720AF810826128D045A26FB398C00F427D0301F86087EDB14814B270512
S123F520805327013934028D1E3402A68427166D6126068DE430012003BDF491A684A1E465
S123F54026E95A26E635A0BDDB00817F24F9815F2602861B810D270E811B270A81082706B9
S123F560812025E31A0139864F978C398600D6791D7EE77BBDE4F6DC1F3406BDE5DEBDE49A
S123F580F335061E109C1F26517EE77B9D7CBDE4F6BDE5DE3410EC021093212304932723CF
S123F5A012E684BDE7F43410AE62BDE8CA3550AF423440BDE9BF34045D271FC6FF812927B0
S123F5C003BDE9BF3404BDE4F3C6AEBDE4FB8D2E1F13AE62A684A06124037EE6D14CA1E48E
S123F5E02402A7E4A6611E89AE025A3A4D270DA1E42302A6E41F891E31BDDCAE3596BDE306
S123F600E27EE8DBBDE4F6BDE9923404BDE4F9BDE3E2BDE4F396062605BDE9952003BDE941
S123F6202B3404E661BDE79635062705A7805A26FB7EE922BDE4F6BDE3E2C601340496069C
S123F6402610BDE995E7E42791BDE4F9BDE3E2BDE3D29E523410BDE4F9BDF5FE3414BDE4BD
S123F660F3AE63BDE8E03404E1662523A661271CE6665A3A3184EE62E661A6E4A0664CA143
S123F68061250CA680A1C0260C5A26F7E666215F32677EE77A6C66302120D98126265C32E9
S123F6A0620F520F538E00529D7C814F2712814827239D82200C81381022EE47C6038D2A21
S123F6C09D7C25F20F500F510F060F630F54C6A0D74F7EEC689D7C250BBDE62925E6814707
S123F6E024E28007C6048D0220EB680169841025F5EC5A26F58030AB01A7013935400F066D
S123F7009E839D7C8126279981B0275E81FF26089D7C8183102700AB9F836EC49E68300156
S123F72026D9C6167EDF06AE9F00838CFF83102700748D238DE6BDE4F6C680D708BDE5DE9F
S123F7408D25BDE4F3C6AEBDE4FB9E4BDC83ED84DC39ED027EE190C6B0BDE4FBC680D7086C
S123F7608A80BDE5E39F4B7EE3CF8DEB3410BDE4EE8DF43540C632AE4227A9109E83EEC400
S123F780DF83A6043402EC84EE023476BDEE81BDE3CD3576ED84EF023502A7049D8210263C
S123F7A0ED61109F83399D7C8D0934108D2D3540AFC4395F9D7C240680301F899D7C9E8D80
S123F7C0583A398DEEAE843410BDE4EE8E004F96062707BDE8DE9E52960639C6AEBDE4FBDB
S123F7E07EE9C41027EEEABDE217BDDFA59F939D82271081A7263B9D7C27048D2420048624
S123F800FF972BDE938CEEC4ECC42706EC42932B23F49E938D15BDDFC59E93BDDF957EDFA1
S123F82025BDE2177EDCB7A6C0A78011931B26F79F1B39BDF71C9D7C8122260BBDE4D0C688
S123F8403BBDE4FBBDEBEB327EBDE2CC3262BDE5DE9F3BBDE3D28E00F34FBDE7A37EE254F4
S123F860BDE2179E2B399E919F2B7EDFA5BDDFCACC000ADD95DD8F5FDD919D8224068DE034
S123F8809F959D82271BBDE4F924068DD39F919D82270EBDE4F924068DC69F8F2749BDDCD9
S123F8A0B78DC39F939E958DBF9C93253A8D1CBDF941BDDF938DAF9F938D3A8D0F8D36BDDE
S123F8C0F9DCBDDFCABDDF937EDF25864F97989E93DC958D150D982602ED02AE848D0BD397
S123F8E08F250481FA25EE7EE6D13406EC84350626023262399E19301F30018DED3003309B
S123F90001A68427F49F0F4A270C4A272A4A26EF8603A78020E7EC016A0227014FE6036A9E
S123F9200427015FED01DD2BBDDFA59E0F25E1DC476C80ED8420C66F84AE01AE029F472090
S123F940EA9E1920049E8330018D9F300230019F839D7C4D27EF2AF99E8381FF27EF81A262
S123F96027128184270E818126E79D7C81A0270481A126DB9D7C25049D8220D79E833410BC
S123F980BDE2179E83A682BDFCEC25F930011F10E061C0052720250A3384503085BDF82B29
S123F9A020149F479E1B9F435030859F419F1BBDDEDE9E459F8335108601A784A702A70426
S123F9C0D62B2604C6016C02E701D62C2604C6016C04E7039D82812C279A209C9E19301F3F
S123F9E03001EC02DD68BDF8EA30033001A68427EF4A271B800226F334108EFA39BDEBE8A0
S123FA00AEE4EC01BDF018BDF011BDEBA835103410EC01DD52BDF6C4BDF0253540C6053032
S123FA2001A68427055AA7C020F530C45D27BE31C433C5BDF82B30A420B3554C2000BDE984
S123FA40C78E01F0C60434045F860408530952594A26F85D260AA6E44A27058C01F0270CBD
S123FA60CB30C1392302CB07E7806F8435045A26D532628E01EF7EE79F860197995ABDFCCE
S123FA801A9D8210270093D793BDE3E2BDE3D29E529F4DD699BDE934BDEBEB9E52D699E00A
S123FAA0845A102B014FBDEBF820F6D7939F0F86029799A684812527C4812026070C9930F5
S123FAC0015A26EF9E0FD6938625BDFC1ABDDB14202981B12701393262BDE3E4BDE3D2C646
S123FAE03BBDE4FB9E529F952006969727089E950F97E68426037EE6D1AE020F9A0F99A63D
S123FB008081211027FF728123275B5A2616BDFC1ABDDB149D8226D296972603BDEBA89E81
S123FB20957EE8E0812B2609BDFC1A8608979A20CC812E274E81251027FF70A184268B81C6
S123FB40242719812A26F6969A8A20979AC1022511A6018124260B5A30010C99969A8A10FB
S123FB60979A30010C990F980C995A2749A680812E271E812327F1812C2621969A8A409709
S123FB809A20E5A68481231026FF3F8601979830010C985A2720A680812327F5815E261653
S123FBA0A1842612A101260EA102260AC1042506C00430040C9A301F0C99969A85082618BE
S123FBC00A995D2713A684802D270681FE260986088A049A9A979A5A9D821027FF3CD7935F
S123FBE0BDE3CD96999B9881111022EAE4BDFC27301FBDEBE80F979D82270D9797813B27D7
S123FC0005BDE4F920029D7C9E95E684D093AE023AD6931026FEE47EFB143402862B0D9A80
S123FC202703BDDB143582CE01F2C620969A85082702C62B0D542A040F54C62DE7C0C63033
S123FC40E7C08401102601078EF00CBDEEEC2B15BDF025A68026FCA682A7018C01F126F750
S123FC608625A78439964F97472703BDFE0F9647102B0081409B998009BDFD2CBDFEA5BD21
S123FC80FE449647BDFEC39647BDFE8B96982602335F4ABDFD2CBDFDC74D2706C12A270279
S123FCA0E7C06FC48E01F130019F0F963A901090992738A684812027EE812A27EA4F3402EE
S123FCC0A680812D27F8812B27F4910027F08130260EA6018D1625083502A78226FA20C7FB
S123FCE035024D26FB9E0F8625A7823981302504803A80C639969827014A9B472B014F345D
S123FD00022A0A3402BDEDCE35024C20F49647A0E097478B092B199699800990478D0DBD6B
S123FD20FEA5201D34028630A7C035024A2AF53996998DF8BDFE8F86F790478DEF0F450F82
S123FD4097BDFE4496982602DE399B4716FF43964F34022703BDFE0F969827014A9B997F00
S123FD6001F1D69AC40426037301F1BB01F1800934022A0A3402BDEDCE35024C20F4A6E458
S123FD802B014F409B994CBB01F197450F97BDFE443502BDFEC396982602335FE6E0270963
S123FDA0D647CB09D099F001F1862B5D2A03862D50A7418645A7C1862F4CC00A24FBCB3ABB
S123FDC0EDC16FC47EFC968E01F2E68434048620D69AC52035042708862AC12026021F8947
S123FDE03404A780E6842710C145270CC13027F2C12C27EEC12E26048630A782969A8510FD
S123FE002704C624E782840435042602E7823934404F9747D64FC18022118EF00CBDED1651
S123FE209647800920ECBDEDCE0C478EF007BDEEEC2EF38EF002BDEEEC2E07BDEDB60A4747
S123FE4020F135C03440BDEC00BDEF1435408EF111C6808D369653AB0397539652A9029702
S123FE60529651A90197519650A98497505C565928E32403C00B50CB2F30041F98847FA7D2
S123FE80C053C4808CF13526CA6FC40A452609DF39862EA7C00F97390A972608860397971C
S123FEA0862CA7C03996478B0A97454C800324FC8B059797969A8440260297973934028DAB
S11DFEC0CA35024A2B0A34028630A7C0A6E026ED3981891027F95C7EE50383
S113FFF00000009B009E00AA00A700A100A4DB460D
S9030000FC
